{
  "contractName": "Lottery",
  "abi": [
    {
      "constant": true,
      "inputs": [],
      "name": "manager",
      "outputs": [
        {
          "name": "",
          "type": "address"
        }
      ],
      "payable": false,
      "stateMutability": "view",
      "type": "function"
    },
    {
      "constant": true,
      "inputs": [],
      "name": "winner",
      "outputs": [
        {
          "name": "",
          "type": "address"
        }
      ],
      "payable": false,
      "stateMutability": "view",
      "type": "function"
    },
    {
      "constant": true,
      "inputs": [
        {
          "name": "",
          "type": "uint256"
        }
      ],
      "name": "players",
      "outputs": [
        {
          "name": "",
          "type": "address"
        }
      ],
      "payable": false,
      "stateMutability": "view",
      "type": "function"
    },
    {
      "inputs": [],
      "payable": false,
      "stateMutability": "nonpayable",
      "type": "constructor"
    },
    {
      "constant": false,
      "inputs": [],
      "name": "enter",
      "outputs": [
        {
          "name": "",
          "type": "uint256"
        }
      ],
      "payable": true,
      "stateMutability": "payable",
      "type": "function"
    },
    {
      "constant": false,
      "inputs": [],
      "name": "pickWinner",
      "outputs": [
        {
          "name": "",
          "type": "uint256"
        }
      ],
      "payable": false,
      "stateMutability": "nonpayable",
      "type": "function"
    },
    {
      "constant": true,
      "inputs": [],
      "name": "getPlayers",
      "outputs": [
        {
          "name": "",
          "type": "address[]"
        }
      ],
      "payable": false,
      "stateMutability": "view",
      "type": "function"
    }
  ],
  "bytecode": "0x608060405234801561001057600080fd5b50336000806101000a81548173ffffffffffffffffffffffffffffffffffffffff021916908373ffffffffffffffffffffffffffffffffffffffff160217905550610794806100606000396000f300608060405260043610610078576000357c0100000000000000000000000000000000000000000000000000000000900463ffffffff168063481c6a751461007d5780635d495aea146100d45780638b5b9ccc146100ff578063dfbf53ae1461016b578063e97dcb62146101c2578063f71d96cb146101e0575b600080fd5b34801561008957600080fd5b5061009261024d565b604051808273ffffffffffffffffffffffffffffffffffffffff1673ffffffffffffffffffffffffffffffffffffffff16815260200191505060405180910390f35b3480156100e057600080fd5b506100e9610272565b6040518082815260200191505060405180910390f35b34801561010b57600080fd5b50610114610429565b6040518080602001828103825283818151815260200191508051906020019060200280838360005b8381101561015757808201518184015260208101905061013c565b505050509050019250505060405180910390f35b34801561017757600080fd5b506101806104b7565b604051808273ffffffffffffffffffffffffffffffffffffffff1673ffffffffffffffffffffffffffffffffffffffff16815260200191505060405180910390f35b6101ca6104dd565b6040518082815260200191505060405180910390f35b3480156101ec57600080fd5b5061020b6004803603810190808035906020019092919050505061055f565b604051808273ffffffffffffffffffffffffffffffffffffffff1673ffffffffffffffffffffffffffffffffffffffff16815260200191505060405180910390f35b6000809054906101000a900473ffffffffffffffffffffffffffffffffffffffff1681565b60008060009054906101000a900473ffffffffffffffffffffffffffffffffffffffff1673ffffffffffffffffffffffffffffffffffffffff163373ffffffffffffffffffffffffffffffffffffffff161415156102cf57600080fd5b600180805490506102de61059d565b8115156102e757fe5b068154811015156102f457fe5b9060005260206000200160009054906101000a900473ffffffffffffffffffffffffffffffffffffffff16600260006101000a81548173ffffffffffffffffffffffffffffffffffffffff021916908373ffffffffffffffffffffffffffffffffffffffff160217905550600260009054906101000a900473ffffffffffffffffffffffffffffffffffffffff1673ffffffffffffffffffffffffffffffffffffffff166108fc3073ffffffffffffffffffffffffffffffffffffffff16319081150290604051600060405180830381858888f193505050501580156103de573d6000803e3d6000fd5b50600060405190808252806020026020018201604052801561040f5781602001602082028038833980820191505090505b506001908051906020019061042592919061069b565b5090565b606060018054806020026020016040519081016040528092919081815260200182805480156104ad57602002820191906000526020600020905b8160009054906101000a900473ffffffffffffffffffffffffffffffffffffffff1673ffffffffffffffffffffffffffffffffffffffff1681526020019060010190808311610463575b5050505050905090565b600260009054906101000a900473ffffffffffffffffffffffffffffffffffffffff1681565b600067016345785d8a000034101515156104f657600080fd5b60013390806001815401808255809150509060018203906000526020600020016000909192909190916101000a81548173ffffffffffffffffffffffffffffffffffffffff021916908373ffffffffffffffffffffffffffffffffffffffff1602179055505090565b60018181548110151561056e57fe5b906000526020600020016000915054906101000a900473ffffffffffffffffffffffffffffffffffffffff1681565b60004442600160405160200180848152602001838152602001828054801561061a57602002820191906000526020600020905b8160009054906101000a900473ffffffffffffffffffffffffffffffffffffffff1673ffffffffffffffffffffffffffffffffffffffff16815260200190600101908083116105d0575b505093505050506040516020818303038152906040526040518082805190602001908083835b6020831015156106655780518252602082019150602081019050602083039250610640565b6001836020036101000a038019825116818451168082178552505050505050905001915050604051809103902060019004905090565b828054828255906000526020600020908101928215610714579160200282015b828111156107135782518260006101000a81548173ffffffffffffffffffffffffffffffffffffffff021916908373ffffffffffffffffffffffffffffffffffffffff160217905550916020019190600101906106bb565b5b5090506107219190610725565b5090565b61076591905b8082111561076157600081816101000a81549073ffffffffffffffffffffffffffffffffffffffff02191690555060010161072b565b5090565b905600a165627a7a72305820b422ccd2601dde9a36fcf5b3692d31d4156cbed69f1b3a6a90dab0e1b5ec0f710029",
  "source": "pragma solidity ^\"0.4.22\";\r\n\r\ncontract Lottery {\r\n    address public manager;\r\n    address[] public players;\r\n    address public winner;\r\n    \r\n    constructor() public {\r\n        manager = msg.sender;\r\n    }\r\n    \r\n    function enter() public payable returns(uint) {\r\n        require(msg.value >= 0.1 ether);\r\n        \r\n        players.push(msg.sender);\r\n    }\r\n    \r\n    function pickWinner() public returns (uint) {\r\n        require(msg.sender == manager);\r\n        \r\n        winner = players[random() % players.length];\r\n        winner.transfer(address(this).balance);\r\n        players = new address[](0);\r\n    }\r\n    \r\n    function random() private view returns (uint) {\r\n        return uint(keccak256(\r\n            abi.encodePacked(\r\n                block.difficulty, block.timestamp, players)));\r\n    }\r\n\r\n    function getPlayers() public view returns (address[]) {\r\n        return players;\r\n    }\r\n}",
  "sourcePath": "E:\\github\\truffle\\truffle-playgroud\\lottery-game\\contracts\\Lottery.sol",
  "compiler": {
    "name": "solc",
    "version": "0.4.24+commit.e67f0147.Emscripten.clang"
  },
  "schemaVersion": "2.0.1",
  "updatedAt": "2018-11-11T19:53:01.569Z"
}