{
  "contractName": "Lottery",
  "abi": [
    {
      "constant": true,
      "inputs": [],
      "name": "endTime",
      "outputs": [
        {
          "name": "",
          "type": "uint256"
        }
      ],
      "payable": false,
      "stateMutability": "view",
      "type": "function"
    },
    {
      "constant": true,
      "inputs": [],
      "name": "manager",
      "outputs": [
        {
          "name": "",
          "type": "address"
        }
      ],
      "payable": false,
      "stateMutability": "view",
      "type": "function"
    },
    {
      "constant": true,
      "inputs": [],
      "name": "startTime",
      "outputs": [
        {
          "name": "",
          "type": "uint256"
        }
      ],
      "payable": false,
      "stateMutability": "view",
      "type": "function"
    },
    {
      "constant": true,
      "inputs": [],
      "name": "winner",
      "outputs": [
        {
          "name": "",
          "type": "address"
        }
      ],
      "payable": false,
      "stateMutability": "view",
      "type": "function"
    },
    {
      "constant": true,
      "inputs": [
        {
          "name": "",
          "type": "uint256"
        }
      ],
      "name": "players",
      "outputs": [
        {
          "name": "",
          "type": "address"
        }
      ],
      "payable": false,
      "stateMutability": "view",
      "type": "function"
    },
    {
      "inputs": [],
      "payable": false,
      "stateMutability": "nonpayable",
      "type": "constructor"
    },
    {
      "constant": false,
      "inputs": [],
      "name": "enter",
      "outputs": [
        {
          "name": "",
          "type": "uint256"
        }
      ],
      "payable": true,
      "stateMutability": "payable",
      "type": "function"
    },
    {
      "constant": false,
      "inputs": [],
      "name": "pickWinner",
      "outputs": [
        {
          "name": "",
          "type": "uint256"
        }
      ],
      "payable": false,
      "stateMutability": "nonpayable",
      "type": "function"
    },
    {
      "constant": false,
      "inputs": [],
      "name": "withdraw",
      "outputs": [],
      "payable": false,
      "stateMutability": "nonpayable",
      "type": "function"
    },
    {
      "constant": true,
      "inputs": [],
      "name": "getPlayers",
      "outputs": [
        {
          "name": "",
          "type": "address[]"
        }
      ],
      "payable": false,
      "stateMutability": "view",
      "type": "function"
    },
    {
      "constant": false,
      "inputs": [
        {
          "name": "duration",
          "type": "uint256"
        }
      ],
      "name": "setEndTime",
      "outputs": [
        {
          "name": "",
          "type": "uint256"
        }
      ],
      "payable": false,
      "stateMutability": "nonpayable",
      "type": "function"
    },
    {
      "constant": false,
      "inputs": [],
      "name": "destroy",
      "outputs": [],
      "payable": false,
      "stateMutability": "nonpayable",
      "type": "function"
    }
  ],
  "bytecode": "0x608060405234801561001057600080fd5b50336000806101000a81548173ffffffffffffffffffffffffffffffffffffffff021916908373ffffffffffffffffffffffffffffffffffffffff160217905550610c71806100606000396000f3006080604052600436106100af576000357c0100000000000000000000000000000000000000000000000000000000900463ffffffff1680633197cbb6146100b45780633ccfd60b146100df578063481c6a75146100f65780635d495aea1461014d57806378e979251461017857806383197ef0146101a35780638b5b9ccc146101ba578063ccb98ffc14610226578063dfbf53ae14610267578063e97dcb62146102be578063f71d96cb146102dc575b600080fd5b3480156100c057600080fd5b506100c9610349565b6040518082815260200191505060405180910390f35b3480156100eb57600080fd5b506100f461034f565b005b34801561010257600080fd5b5061010b6104bb565b604051808273ffffffffffffffffffffffffffffffffffffffff1673ffffffffffffffffffffffffffffffffffffffff16815260200191505060405180910390f35b34801561015957600080fd5b506101626104e0565b6040518082815260200191505060405180910390f35b34801561018457600080fd5b5061018d610559565b6040518082815260200191505060405180910390f35b3480156101af57600080fd5b506101b861055f565b005b3480156101c657600080fd5b506101cf6105d3565b6040518080602001828103825283818151815260200191508051906020019060200280838360005b838110156102125780820151818401526020810190506101f7565b505050509050019250505060405180910390f35b34801561023257600080fd5b5061025160048036038101908080359060200190929190505050610661565b6040518082815260200191505060405180910390f35b34801561027357600080fd5b5061027c6106d3565b604051808273ffffffffffffffffffffffffffffffffffffffff1673ffffffffffffffffffffffffffffffffffffffff16815260200191505060405180910390f35b6102c66106f9565b6040518082815260200191505060405180910390f35b3480156102e857600080fd5b50610307600480360381019080803590602001909291905050506107f3565b604051808273ffffffffffffffffffffffffffffffffffffffff1673ffffffffffffffffffffffffffffffffffffffff16815260200191505060405180910390f35b60045481565b6000600260009054906101000a900473ffffffffffffffffffffffffffffffffffffffff1673ffffffffffffffffffffffffffffffffffffffff163373ffffffffffffffffffffffffffffffffffffffff161415156103ad57600080fd5b600560003373ffffffffffffffffffffffffffffffffffffffff1673ffffffffffffffffffffffffffffffffffffffff1681526020019081526020016000205490506000811115156103fe57600080fd5b803073ffffffffffffffffffffffffffffffffffffffff16311015151561042457600080fd5b3373ffffffffffffffffffffffffffffffffffffffff166108fc829081150290604051600060405180830381858888f1935050505015801561046a573d6000803e3d6000fd5b5080600560003373ffffffffffffffffffffffffffffffffffffffff1673ffffffffffffffffffffffffffffffffffffffff1681526020019081526020016000206000828254039250508190555050565b6000809054906101000a900473ffffffffffffffffffffffffffffffffffffffff1681565b60008060009054906101000a900473ffffffffffffffffffffffffffffffffffffffff1673ffffffffffffffffffffffffffffffffffffffff163373ffffffffffffffffffffffffffffffffffffffff1614151561053d57600080fd5b600454421015151561054e57600080fd5b610556610831565b90565b60035481565b6000809054906101000a900473ffffffffffffffffffffffffffffffffffffffff1673ffffffffffffffffffffffffffffffffffffffff163373ffffffffffffffffffffffffffffffffffffffff161415156105ba57600080fd5b3373ffffffffffffffffffffffffffffffffffffffff16ff5b6060600180548060200260200160405190810160405280929190818152602001828054801561065757602002820191906000526020600020905b8160009054906101000a900473ffffffffffffffffffffffffffffffffffffffff1673ffffffffffffffffffffffffffffffffffffffff168152602001906001019080831161060d575b5050505050905090565b60008060009054906101000a900473ffffffffffffffffffffffffffffffffffffffff1673ffffffffffffffffffffffffffffffffffffffff163373ffffffffffffffffffffffffffffffffffffffff161415156106be57600080fd5b81600354016004819055506004549050919050565b600260009054906101000a900473ffffffffffffffffffffffffffffffffffffffff1681565b600067016345785d8a0000341015151561071257600080fd5b600060018054905014156107355742600381905550610258600354016004819055505b60013390806001815401808255809150509060018203906000526020600020016000909192909190916101000a81548173ffffffffffffffffffffffffffffffffffffffff021916908373ffffffffffffffffffffffffffffffffffffffff1602179055505067016345785d8a0000600560003373ffffffffffffffffffffffffffffffffffffffff1673ffffffffffffffffffffffffffffffffffffffff1681526020019081526020016000206000828254019250508190555090565b60018181548110151561080257fe5b906000526020600020016000915054906101000a900473ffffffffffffffffffffffffffffffffffffffff1681565b60008060008060018080549050610846610a7a565b81151561084f57fe5b0681548110151561085c57fe5b9060005260206000200160009054906101000a900473ffffffffffffffffffffffffffffffffffffffff16600260006101000a81548173ffffffffffffffffffffffffffffffffffffffff021916908373ffffffffffffffffffffffffffffffffffffffff16021790555060009350600092505b6001805490508360ff1610156109be5760018360ff168154811015156108f257fe5b9060005260206000200160009054906101000a900473ffffffffffffffffffffffffffffffffffffffff169150600560008373ffffffffffffffffffffffffffffffffffffffff1673ffffffffffffffffffffffffffffffffffffffff168152602001908152602001600020549050808401935080600560008473ffffffffffffffffffffffffffffffffffffffff1673ffffffffffffffffffffffffffffffffffffffff168152602001908152602001600020600082825403925050819055508260010192506108d0565b8360056000600260009054906101000a900473ffffffffffffffffffffffffffffffffffffffff1673ffffffffffffffffffffffffffffffffffffffff1673ffffffffffffffffffffffffffffffffffffffff168152602001908152602001600020600082825401925050819055506000604051908082528060200260200182016040528015610a5d5781602001602082028038833980820191505090505b5060019080519060200190610a73929190610b78565b5050505050565b600044426001604051602001808481526020018381526020018280548015610af757602002820191906000526020600020905b8160009054906101000a900473ffffffffffffffffffffffffffffffffffffffff1673ffffffffffffffffffffffffffffffffffffffff1681526020019060010190808311610aad575b505093505050506040516020818303038152906040526040518082805190602001908083835b602083101515610b425780518252602082019150602081019050602083039250610b1d565b6001836020036101000a038019825116818451168082178552505050505050905001915050604051809103902060019004905090565b828054828255906000526020600020908101928215610bf1579160200282015b82811115610bf05782518260006101000a81548173ffffffffffffffffffffffffffffffffffffffff021916908373ffffffffffffffffffffffffffffffffffffffff16021790555091602001919060010190610b98565b5b509050610bfe9190610c02565b5090565b610c4291905b80821115610c3e57600081816101000a81549073ffffffffffffffffffffffffffffffffffffffff021916905550600101610c08565b5090565b905600a165627a7a723058207a6b12ca6614502a058f7b0177964c29ea16905772e858505f106623e8eb66680029",
  "source": "pragma solidity ^0.4.22;\n\ncontract Lottery {\n    address public manager;\n    address[] public players;\n    address public winner;\n    uint public startTime;\n    uint public endTime;\n\n    mapping(address => uint) lotteryBalance;\n\n    constructor() public {\n        manager = msg.sender;\n    }\n\n    function enter() public payable returns(uint) {\n        require(msg.value >= 0.1 ether);\n        if (players.length == 0) {\n            startTime = now;\n            endTime = startTime + 60*10;\n        }\n        players.push(msg.sender);\n        lotteryBalance[msg.sender] += 0.1 ether;\n    }\n\n    function pickWinner() public returns (uint) {\n        require(msg.sender == manager);\n        require(now >= endTime);\n        rewardWinner();\n\n    }\n\n    function random() private view returns (uint) {\n        return uint(keccak256(\n            abi.encodePacked(\n                block.difficulty, block.timestamp, players)));\n    }\n\n    function rewardWinner() internal {\n        winner = players[random() % players.length];\n        uint sum = 0;\n        for (uint8 i=0; i<players.length; ++i) {\n            address user = players[i];\n            uint bal = lotteryBalance[user];\n            sum += bal;\n            lotteryBalance[user] -= bal;\n        }\n        lotteryBalance[winner] += sum;\n        players = new address[](0);\n    }\n\n    function withdraw() public {\n        require(msg.sender == winner);\n        uint userBal = lotteryBalance[msg.sender];\n        require(userBal > 0);\n        require(address(this).balance >= userBal);\n\n        msg.sender.transfer(userBal);\n        lotteryBalance[msg.sender] -= userBal;\n    }\n\n    function getPlayers() public view returns (address[]) {\n        return players;\n    }\n\n    function setEndTime(uint duration) public returns (uint) {\n        require(msg.sender == manager);\n        endTime = startTime + duration;\n        return endTime;\n    }\n\n    function destroy() public {\n        require(msg.sender == manager);\n        selfdestruct(msg.sender);\n    }\n}",
  "sourcePath": "/Users/kimsunwoo/WebstormProjects/lottery-game/contracts/Lottery.sol",
  "compiler": {
    "name": "solc",
    "version": "0.4.24+commit.e67f0147.Emscripten.clang"
  },
  "schemaVersion": "2.0.1",
  "updatedAt": "2018-12-31T05:02:16.447Z"
}